:100000000C942A000C943F000C943F000C943F0089
:100010000C943F000C943F000C943F000C943F0064
:100020000C943F000C943F000C943F000C943F0054
:100030000C943F000C943F000C943F000C943F0044
:100040000C943F000C943F000C943F000C943F0034
:100050000C943F0011241FBECFE5D8E0DEBFCDBF1A
:1000600010E0A0E6B0E0E6ECF3E002C005900D92EF
:10007000AE36B107D9F70E94DA010C94E1010C9475
:1000800000004130A1F5813089F028F08230C9F0BC
:10009000833011F108952AB381E090E002C0880F07
:1000A000991F6A95E2F7822B8ABB089527B381E0F6
:1000B00090E002C0880F991F6A95E2F7822B87BBF8
:1000C000089524B381E090E002C0880F991F6A95DB
:1000D000E2F7822B84BB089521B381E090E002C057
:1000E000880F991F6A95E2F7822B81BB0895411111
:1000F00037C0813091F028F08230D9F0833029F177
:1001000008952AB381E090E002C0880F991F6A9594
:10011000E2F7809582238ABB089527B381E090E0BF
:1001200002C0880F991F6A95E2F78095822387BBEA
:10013000089524B381E090E002C0880F991F6A956A
:10014000E2F78095822384BB089521B381E090E09B
:1001500002C0880F991F6A95E2F78095822381BBC0
:1001600008954130A1F5813089F028F08230C9F03E
:10017000833011F108952BB381E090E002C0880F25
:10018000991F6A95E2F7822B8BBB089528B381E013
:1001900090E002C0880F991F6A95E2F7822B88BB16
:1001A000089525B381E090E002C0880F991F6A95F9
:1001B000E2F7822B85BB089522B381E090E002C074
:1001C000880F991F6A95E2F7822B82BB089541112F
:1001D00037C0813091F028F08230D9F0833029F196
:1001E00008952BB381E090E002C0880F991F6A95B3
:1001F000E2F7809582238BBB089528B381E090E0DD
:1002000002C0880F991F6A95E2F78095822388BB08
:10021000089525B381E090E002C0880F991F6A9588
:10022000E2F78095822385BB089522B381E090E0B8
:1002300002C0880F991F6A95E2F78095822382BBDE
:100240000895813041F028F0823039F0833039F060
:1002500008956ABB089567BB089564BB089561BBA8
:100260000895813041F028F0823039F0833039F040
:1002700008956BBB089568BB089565BB089562BB84
:10028000089541E063E081E00E94B1008FEC97E0C7
:100290000197F1F700C0000040E063E081E00E94B8
:1002A000B1008FEC97E00197F1F700C000000895CE
:1002B000682F80E00E94310141E061E081E00E940E
:1002C000B10040E062E081E00E94B1000E94410183
:1002D00008950F931F93CF938C01C0E003C00E9439
:1002E0005801CF5FF801EC0FF11D80818111F7CF2C
:1002F000CF911F910F910895682F80E00E943101E6
:1003000040E061E081E00E94B10040E062E081E015
:100310000E94B1000E944101089581E00E947C0189
:100320008FE19EE40197F1F700C0000008952FE7E8
:1003300088E391E0215080409040E1F700C0000048
:1003400061E080E00E94210141E061E081E00E94E3
:10035000410041E062E081E00E94410041E063E051
:1003600081E00E94410082E00E947C018FEC97E0D6
:100370000197F1F700C0000088E30E947C018FEC38
:1003800097E00197F1F700C000008CE00E947C012B
:100390008FEC97E00197F1F700C000000E948D01FB
:1003A00086E00E947C018FEC97E00197F1F700C096
:1003B000000008950E94970180E690E00E94690184
:0603C000FFCFF894FFCF0F
:0E03C6002046494654482044524956455200AC
:00000001FF
